{
  "_format": "hh-sol-artifact-1",
  "contractName": "GovernanceV2Facet",
  "sourceName": "contracts/facets/GovernanceV2Facet.sol",
  "abi": [
    {
      "anonymous": false,
      "inputs": [
        {
          "indexed": false,
          "internalType": "address",
          "name": "member",
          "type": "address"
        },
        {
          "indexed": false,
          "internalType": "address",
          "name": "admin",
          "type": "address"
        }
      ],
      "name": "MemberAdminUpdated",
      "type": "event"
    },
    {
      "anonymous": false,
      "inputs": [
        {
          "indexed": false,
          "internalType": "address",
          "name": "member",
          "type": "address"
        },
        {
          "indexed": false,
          "internalType": "bool",
          "name": "status",
          "type": "bool"
        }
      ],
      "name": "MemberUpdated",
      "type": "event"
    },
    {
      "inputs": [
        {
          "internalType": "address",
          "name": "_account",
          "type": "address"
        },
        {
          "internalType": "address",
          "name": "_accountAdmin",
          "type": "address"
        },
        {
          "internalType": "bool",
          "name": "_status",
          "type": "bool"
        }
      ],
      "name": "updateMember",
      "outputs": [],
      "stateMutability": "nonpayable",
      "type": "function"
    }
  ],
  "bytecode": "0x608060405234801561001057600080fd5b50610f3d806100206000396000f3fe608060405234801561001057600080fd5b506004361061002b5760003560e01c8063df415f6714610030575b600080fd5b61004361003e366004610a7d565b610045565b005b61004d61027e565b80156100c15760005b61005e6102d5565b811015610089576100778461007283610327565b61037b565b8061008181610ea1565b915050610056565b5060005b610095610407565b8110156100bb576100a98461007283610433565b806100b381610ea1565b91505061008d565b506101b0565b6001600160a01b0383811660009081527f1c03ec2fe6acf7b94b95c87bd1c750db913cc1fec10e1e766e5eb2c5f8b774fb6020526040812054909116905b6101076102d5565b81101561015257600061011982610327565b905060006101278783610460565b905061013d6001600160a01b038316858361051d565b5050808061014a90610ea1565b9150506100ff565b5060005b61015e610407565b8110156101a957600061017082610433565b9050600061017e8783610460565b90506101946001600160a01b038316858361051d565b505080806101a190610ea1565b915050610156565b5060009250505b6101ba8382610578565b7f30f1d11f11278ba2cc669fd4c95ee8d46ede2c82f6af0b74e4f427369b3522d383826040516101eb929190610d1c565b60405180910390a16001600160a01b0380841660009081527f1c03ec2fe6acf7b94b95c87bd1c750db913cc1fec10e1e766e5eb2c5f8b774fb6020526040902080546001600160a01b0319169184169190911790557faa527bc6d16ba1f0d9356df49b7c52ce422382c8468ee06fca438ef8e73920558383604051610271929190610d01565b60405180910390a1505050565b7fc8fcad8db84d3cc18b4c41d551ea0ee66dd599cde068d998e57d5e09332c131c600401546001600160a01b031633146102d35760405162461bcd60e51b81526004016102ca90610d73565b60405180910390fd5b565b60007f1a3e4131826bb378aa43abb34a33a366bc4a35b55ab18a884fa205b59285ec456103217f1a3e4131826bb378aa43abb34a33a366bc4a35b55ab18a884fa205b59285ec47610622565b91505090565b60007f1a3e4131826bb378aa43abb34a33a366bc4a35b55ab18a884fa205b59285ec456103747f1a3e4131826bb378aa43abb34a33a366bc4a35b55ab18a884fa205b59285ec478461062c565b9392505050565b6001600160a01b03811660009081527f01db454b85b271fc968f832cfcd995dcefcccf9745d96cf6392cb39453c94200602052604090207f01db454b85b271fc968f832cfcd995dcefcccf9745d96cf6392cb39453c941fe906103dd81610638565b5060038101546001600160a01b039094166000908152600490910160205260409020929092555050565b60007fb8fcd7eef1a762ca63c912dfd61c8c8d49701c91347bff00e8599878da07597861032181610622565b60007fb8fcd7eef1a762ca63c912dfd61c8c8d49701c91347bff00e8599878da075978610374818461062c565b6001600160a01b03811660009081527f01db454b85b271fc968f832cfcd995dcefcccf9745d96cf6392cb39453c94200602052604081207f01db454b85b271fc968f832cfcd995dcefcccf9745d96cf6392cb39453c941fe906104c281610638565b506001600160a01b038516600090815260048201602052604081205460038301546104ed9190610e49565b60038301546001600160a01b03881660009081526004909401602052604090932092909255509150505b92915050565b6105738363a9059cbb60e01b848460405160240161053c929190610d37565b60408051601f198184030181529190526020810180516001600160e01b03166001600160e01b0319909316929092179091526106aa565b505050565b7f1c03ec2fe6acf7b94b95c87bd1c750db913cc1fec10e1e766e5eb2c5f8b774f881156105cd576105ac6001820184610739565b6105c85760405162461bcd60e51b81526004016102ca90610da3565b610573565b816105735760016105dc61074e565b116105f95760405162461bcd60e51b81526004016102ca90610d63565b610606600182018461079a565b6105735760405162461bcd60e51b81526004016102ca90610d83565b6000610517825490565b600061037483836107af565b60008061064361074e565b90506000818460020154856001015461065c9190610e49565b6106669190610e16565b90506106728282610e2a565b8460020160008282546106859190610dfe565b9091555050600384015461069a908290610dfe565b6003850181905592505050919050565b60006106ff826040518060400160405280602081526020017f5361666545524332303a206c6f772d6c6576656c2063616c6c206661696c6564815250856001600160a01b03166107e79092919063ffffffff16565b805190915015610573578080602001905181019061071d9190610aca565b6105735760405162461bcd60e51b81526004016102ca90610dee565b6000610374836001600160a01b0384166107fe565b60007f1c03ec2fe6acf7b94b95c87bd1c750db913cc1fec10e1e766e5eb2c5f8b774f86103217f1c03ec2fe6acf7b94b95c87bd1c750db913cc1fec10e1e766e5eb2c5f8b774f9610622565b6000610374836001600160a01b03841661084d565b60008260000182815481106107d457634e487b7160e01b600052603260045260246000fd5b9060005260206000200154905092915050565b60606107f6848460008561096a565b949350505050565b600081815260018301602052604081205461084557508154600181810184556000848152602080822090930184905584548482528286019093526040902091909155610517565b506000610517565b60008181526001830160205260408120548015610960576000610871600183610e49565b855490915060009061088590600190610e49565b90508181146109065760008660000182815481106108b357634e487b7160e01b600052603260045260246000fd5b90600052602060002001549050808760000184815481106108e457634e487b7160e01b600052603260045260246000fd5b6000918252602080832090910192909255918252600188019052604090208390555b855486908061092557634e487b7160e01b600052603160045260246000fd5b600190038181906000526020600020016000905590558560010160008681526020019081526020016000206000905560019350505050610517565b6000915050610517565b60608247101561098c5760405162461bcd60e51b81526004016102ca90610d93565b843b6109aa5760405162461bcd60e51b81526004016102ca90610db3565b600080866001600160a01b031685876040516109c69190610cf5565b60006040518083038185875af1925050503d8060008114610a03576040519150601f19603f3d011682016040523d82523d6000602084013e610a08565b606091505b5091509150610a18828286610a23565b979650505050505050565b60608315610a32575081610374565b825115610a425782518084602001fd5b8160405162461bcd60e51b81526004016102ca9190610d52565b803561051781610ee8565b803561051781610eff565b805161051781610eff565b600080600060608486031215610a9257600080fd5b6000610a9e8686610a5c565b9350506020610aaf86828701610a5c565b9250506040610ac086828701610a67565b9150509250925092565b600060208284031215610adc57600080fd5b60006107f68484610a72565b610af181610e60565b82525050565b801515610af1565b6000610b09825190565b610b17818560208601610e71565b9290920192915050565b6000610b2b825190565b808452602084019350610b42818560208601610e71565b601f01601f19169290920192915050565b602f81526000602082017f4c6962476f7665726e616e63653a20636f6e747261637420776f756c6420626581526e636f6d65206d656d6265726c65737360881b602082015291505b5060400190565b602281526000602082017f4c69624469616d6f6e643a204d75737420626520636f6e7472616374206f776e81526132b960f11b60208201529150610b9b565b602681526000602082017f4c6962476f7665726e616e63653a204163636f756e74206973206e6f7420612081526536b2b6b132b960d11b60208201529150610b9b565b602681526000602082017f416464726573733a20696e73756666696369656e742062616c616e636520666f8152651c8818d85b1b60d21b60208201529150610b9b565b602481526000602082017f4c6962476f7665726e616e63653a204163636f756e7420616c726561647920618152631919195960e21b60208201529150610b9b565b602a81526000602082017f5361666545524332303a204552433230206f7065726174696f6e20646964206e8152691bdd081cdd58d8d9595960b21b60208201529150610b9b565b80610af1565b60006103748284610aff565b60408101610d0f8285610ae8565b6103746020830184610ae8565b60408101610d2a8285610ae8565b6103746020830184610af7565b60408101610d458285610ae8565b6103746020830184610cef565b602080825281016103748184610b21565b6020808252810161051781610b53565b6020808252810161051781610ba2565b6020808252810161051781610be1565b6020808252810161051781610c24565b6020808252810161051781610c67565b6020808252810161051781601d81527f416464726573733a2063616c6c20746f206e6f6e2d636f6e7472616374000000602082015260400190565b6020808252810161051781610ca8565b60008219821115610e1157610e11610ebc565b500190565b600082610e2557610e25610ed2565b500490565b6000816000190483118215151615610e4457610e44610ebc565b500290565b600082821015610e5b57610e5b610ebc565b500390565b60006001600160a01b038216610517565b60005b83811015610e8c578181015183820152602001610e74565b83811115610e9b576000848401525b50505050565b6000600019821415610eb557610eb5610ebc565b5060010190565b634e487b7160e01b600052601160045260246000fd5b634e487b7160e01b600052601260045260246000fd5b610ef181610e60565b8114610efc57600080fd5b50565b801515610ef156fea2646970667358221220a7085d75fb7a790674d235c8da2ca1fecad3d76ff97a85af1811b624334069cd64736f6c63430008030033",
  "linkReferences": {},
  "deployedLinkReferences": {}
}