{
  "_format": "hh-sol-artifact-1",
  "contractName": "PaymentFacet",
  "sourceName": "contracts/facets/PaymentFacet.sol",
  "abi": [
    {
      "anonymous": false,
      "inputs": [
        {
          "indexed": false,
          "internalType": "address",
          "name": "_token",
          "type": "address"
        },
        {
          "indexed": false,
          "internalType": "bool",
          "name": "_status",
          "type": "bool"
        }
      ],
      "name": "SetPaymentToken",
      "type": "event"
    },
    {
      "inputs": [
        {
          "internalType": "uint256",
          "name": "_index",
          "type": "uint256"
        }
      ],
      "name": "paymentTokenAt",
      "outputs": [
        {
          "internalType": "address",
          "name": "",
          "type": "address"
        }
      ],
      "stateMutability": "view",
      "type": "function"
    },
    {
      "inputs": [
        {
          "internalType": "address",
          "name": "_token",
          "type": "address"
        },
        {
          "internalType": "bool",
          "name": "_status",
          "type": "bool"
        }
      ],
      "name": "setPaymentToken",
      "outputs": [],
      "stateMutability": "nonpayable",
      "type": "function"
    },
    {
      "inputs": [
        {
          "internalType": "address",
          "name": "_token",
          "type": "address"
        }
      ],
      "name": "supportsPaymentToken",
      "outputs": [
        {
          "internalType": "bool",
          "name": "",
          "type": "bool"
        }
      ],
      "stateMutability": "view",
      "type": "function"
    },
    {
      "inputs": [],
      "name": "totalPaymentTokens",
      "outputs": [
        {
          "internalType": "uint256",
          "name": "",
          "type": "uint256"
        }
      ],
      "stateMutability": "view",
      "type": "function"
    }
  ],
  "bytecode": "0x608060405234801561001057600080fd5b5061078a806100206000396000f3fe608060405234801561001057600080fd5b506004361061004c5760003560e01c80633a3934c414610051578063430884cf1461007a578063530c06681461008f578063b6707500146100af575b600080fd5b61006461005f36600461050a565b6100c4565b604051610071919061064c565b60405180910390f35b61008d6100883660046104d0565b6100d5565b005b6100a261009d3660046104aa565b610153565b6040516100719190610675565b6100b761015e565b60405161007191906106c3565b60006100cf8261016d565b92915050565b6001600160a01b0382166101045760405162461bcd60e51b81526004016100fb90610693565b60405180910390fd5b61010c61018f565b61011682826101dd565b7ffb2da8463afca3d57657a0d7cbeee4ade8c3596d1b1bca20e4795db47975910f828260405161014792919061065a565b60405180910390a15050565b60006100cf82610248565b6000610168610263565b905090565b60006000805160206107358339815191526101888184610283565b9392505050565b7fc8fcad8db84d3cc18b4c41d551ea0ee66dd599cde068d998e57d5e09332c131c600401546001600160a01b031633146101db5760405162461bcd60e51b81526004016100fb90610683565b565b600080516020610735833981519152811561021d576101fc818461028f565b6102185760405162461bcd60e51b81526004016100fb906106b3565b610243565b61022781846102a4565b6102435760405162461bcd60e51b81526004016100fb906106a3565b505050565b600060008051602061073583398151915261018881846102b9565b600060008051602061073583398151915261027d816102db565b91505090565b600061018883836102e5565b6000610188836001600160a01b03841661031d565b6000610188836001600160a01b03841661036c565b6001600160a01b03811660009081526001830160205260408120541515610188565b60006100cf825490565b600082600001828154811061030a57634e487b7160e01b600052603260045260246000fd5b9060005260206000200154905092915050565b6000818152600183016020526040812054610364575081546001818101845560008481526020808220909301849055845484825282860190935260409020919091556100cf565b5060006100cf565b6000818152600183016020526040812054801561047f5760006103906001836106d1565b85549091506000906103a4906001906106d1565b90508181146104255760008660000182815481106103d257634e487b7160e01b600052603260045260246000fd5b906000526020600020015490508087600001848154811061040357634e487b7160e01b600052603260045260246000fd5b6000918252602080832090910192909255918252600188019052604090208390555b855486908061044457634e487b7160e01b600052603160045260246000fd5b6001900381819060005260206000200160009055905585600101600086815260200190815260200160002060009055600193505050506100cf565b60009150506100cf565b80356100cf8161070f565b80356100cf81610726565b80356100cf8161072e565b6000602082840312156104bc57600080fd5b60006104c88484610489565b949350505050565b600080604083850312156104e357600080fd5b60006104ef8585610489565b925050602061050085828601610494565b9150509250929050565b60006020828403121561051c57600080fd5b60006104c8848461049f565b610531816106e8565b82525050565b801515610531565b602281526000602082017f4c69624469616d6f6e643a204d75737420626520636f6e7472616374206f776e81526132b960f11b602082015291505b5060400190565b602481526000602082017f5061796d656e7446616365743a205f746f6b656e206d757374206e6f742062658152630203078360e41b6020820152915061057a565b602381526000602082017f4c69625061796d656e743a207061796d656e7420746f6b656e206e6f7420666f8152621d5b9960ea1b6020820152915061057a565b602781526000602082017f4c69625061796d656e743a207061796d656e7420746f6b656e20616c726561648152661e48185919195960ca1b6020820152915061057a565b80610531565b602081016100cf8284610528565b604081016106688285610528565b6101886020830184610537565b602081016100cf8284610537565b602080825281016100cf8161053f565b602080825281016100cf81610581565b602080825281016100cf816105c2565b602080825281016100cf81610602565b602081016100cf8284610646565b6000828210156106e3576106e36106f9565b500390565b60006001600160a01b0382166100cf565b634e487b7160e01b600052601160045260246000fd5b610718816106e8565b811461072357600080fd5b50565b801515610718565b8061071856feb8fcd7eef1a762ca63c912dfd61c8c8d49701c91347bff00e8599878da075978a2646970667358221220c608067d00186d1b1f996d0caf7ed09be8ba2aba6d2dbd3624709b9ace1c7f7164736f6c63430008030033",
  "linkReferences": {},
  "deployedLinkReferences": {}
}